:020000040800F2
:10000000FCFF0420BDE9000839EA000839EA0008CD
:1000100039EA000839EA000839EA000839EA000834
:1000200039EA000839EA000839EA000839EA000824
:1000300039EA000839EA000839EA000839EA000814
:1000400039EA000839EA000839EA000839EA000804
:1000500039EA000839EA000839EA000839EA0008F4
:1000600039EA000839EA000839EA000839EA0008E4
:1000700039EA000839EA000839EA000839EA0008D4
:1000800039EA000839EA000839EA000839EA0008C4
:1000900039EA000839EA000839EA000839EA0008B4
:1000A00039EA000839EA000839EA000839EA0008A4
:1000B00039EA000839EA000839EA000839EA000894
:1000C00039EA000839EA000839EA000839EA000884
:1000D00039EA000839EA000839EA000839EA000874
:1000E00039EA000839EA000839EA000825E500087D
:1000F00039EA000861E5000839EA000839EA000831
:1001000039EA000839EA000839EA000839EA000843
:1001100039EA000839EA000839EA000839EA000833
:1001200039EA000839EA000839EA000839EA000823
:1001300039EA000839EA000839EA000839EA000813
:1001400039EA000839EA000839EA000839EA000803
:1001500039EA000839EA000839EA000839EA0008F3
:1001600039EA000839EA000839EA000839EA0008E3
:1001700039EA000839EA000839EA000839EA0008D3
:1001800039EA000839EA000839EA000839EA0008C3
:1001900039EA000839EA000839EA000839EA0008B3
:1001A00039EA000839EA000839EA000839EA0008A3
:1001B00039EA000839EA000839EA000839EA000893
:1001C00039EA000839EA000881B00A4600210446ED
:1001D000104600280ED9094B1A68127822701A4668
:1001E0001268521C1A60621C1346491CC9B2401E98
:1001F0001C46EEE7C8B201B0704700BF20090220DC
:1002000081B04B1E4FF001029A4082180A411046FD
:1002100001B0704781B06FF07F01884202DA802020
:1002200040B205E07F2802DD7F2040B200E040B20E
:1002300001B0704781B0CDF800E0404801884048E7
:10024000008888421BD380213E48FFF7BDFF3B4911
:1002500008803A480088411E89B23A484018007820
:10026000B0F1FF0F08D135490888401E0880364993
:100270000868401E0860ECE70021314801803348DF
:100280000078002842D11021304801702C4C218880
:100290002C48401800782E4B188020460088421CBD
:1002A00092B2228018460088010289B2254880183F
:1002B00000780818188020460088411C89B22180E7
:1002C0001E480088814203D90821204801701CE0A3
:1002D0001F48008800F0FF0080B2B0F1FF0F07D187
:1002E00008211A48017016490888401E08800CE051
:1002F00017480088B0F57F4F07D315480088B0F540
:100300007F4F02D1082111480170B8E710480088DA
:1003100000F4004080B210B1012252B201E000228C
:1003200052B20B4908884000088008490878401EEE
:100330000870D0B2DDF800E001B070471409022067
:1003400016090220940802202009022070050220CC
:100350006E05022082B0CDF800E0C5B2FFF76AFF5B
:100360000A4908706D1EEDB25DB14100ADF8041090
:10037000FFF760FFBDF80410091888B26D1EEDB2DA
:10038000F2E7DDF800E002B0704700BF1809022074
:1003900083B0CDF800E00025002100270026102EB4
:1003A0002FD24800ADF80800FFF744FFBDF8081051
:1003B000081882B215480068801900788DF804008A
:1003C00000B91AE071001248006840180088111A3C
:1003D00089B2ADF806109DF80400814208D2BDF83C
:1003E0000600391889B20B4800684018007809E007
:1003F0009DF80400381881B28FB2761CF6B291B223
:10040000CDE7E8B2DDF800E003B0704784080220D1
:100410008C0802208808022081B0C40AA4B2E4003B
:100420000C704409A4B2A4001470C4001C7001B084
:100430007047FFFF81B0CDF800E0C6B20020AEB13A
:10044000F0B2FFF787FF0C49097871B94FF6FF71D9
:10045000B14089B240EA010189B2C9430AB24FF6FC
:10046000FF7109B2514308B201E0FFE700B2DDF8C5
:1004700000E001B0704700BF1809022081B00028D9
:1004800001DA002005E0B0F1FF0F01DDFF2000E000
:10049000C0B201B07047FFFFD2B0CDF800E04F917D
:1004A0000B900EAA0D9208228DF8282001469DF887
:1004B0002820002A40F27F810B9A1032B2F90020E6
:1004C000002A5AD10B9A2032B2F90020002A54D1C6
:1004D0000B9A3032B2F90020002A4ED10B9A4032EA
:1004E000B2F90020002A48D10B9A5032B2F900200C
:1004F000002A42D10B9A6032B2F90020002A3CD186
:100500000B9A7032B2F90020BABB0B9AB2F90020F4
:1005100013B24F9A12885A4393004E930D9A136068
:100520000D9A02F220034E9A1A600D9A02F24003CD
:100530004E9A1A600D9A02F260034E9A1A600D9A52
:1005400002F280034E9A1A600D9A02F2A0034E9AAC
:100550001A600D9A02F2C0034E9A1A600D9A02F2C6
:10056000E0034E9A1A600B9A921C0B924F9A921CBF
:100570004F920D9A121D0D9217E10B9A2032B2F98B
:10058000002013B24F9A2032128803FB02F50B9A17
:100590006032B2F9002013B24F9A6032128803FB26
:1005A00002F42B19DC4A5343DC4A62439F18049738
:1005B000DB4A6A439E1805960B9AB2F9002013B2E3
:1005C0004F9A128803FB02F50B9A4032B2F90020D1
:1005D00013B24F9A403212885343EA1854030294DC
:1005E000EA1A53030393A0190690A21B0992DA1981
:1005F0000792DA1B08920B9A7032B2F9002013B2FC
:100600004F9A7032128803FB02FACDF808A00B9AB9
:100610005032B2F9002013B24F9A5032128803FBC5
:1006200002F9CDF80C900B9A3032B2F9002013B2D7
:100630004F9A3032128803FB02F8CDF810800B9AE3
:100640001032B2F9002013B24F9A1032128803FB15
:1006500002F705970AEB070609EB08050AEB080CF9
:1006600009EB07040CEB0403AE4A03FB02FBAE4AA2
:1006700002FB0AFACDF808A0AC4A02FB09F9CDF852
:100680000C90AB4A02FB08F8CDF81080A94A5743FA
:100690000597A94A5643A94A5543A94A0CFB02F3B8
:1006A000A84A624303EB0B0402EB0B0332190AEB7B
:1006B00002020292EA1809EB020203922A1908EBDD
:1006C00002020492F218BB1805930D9A5192C218B7
:1006D000019140F20B011046FFF792FD519A106014
:1006E0000D9AE0325192059B069AD21A40F20B0104
:1006F0001046FFF785FD519A10600D9A20325192F5
:10070000049B079AD21840F20B011046FFF778FDC0
:10071000519A10600D9AC0325192049B079AD21AD6
:1007200040F20B011046FFF76BFD519A10600D9AD5
:1007300040325192039B089AD21840F20B011046A6
:10074000FFF75EFD519A10600D9AA0325192039B03
:10075000089AD21A40F20B011046FFF751FD519A48
:1007600010600D9A60325192029B099AD21840F2A1
:100770000B011046FFF744FD519A10600D9A80322C
:100780005192029B099AD21A40F20B011046FFF7D0
:1007900037FD0199519A10600B9A921C0B924F9A57
:1007A000921C4F920D9A121D0D929DF82820521EF8
:1007B0008DF828207BE60EAA0D920C9100228DF870
:1007C00028209DF82820082A80F025810D9A0832DB
:1007D00015680D9A183214682B194F4A53434F4A23
:1007E00062439E1804964E4A6A439D1805950D9AD9
:1007F00013680D9A103212689A18540302940D9AD5
:1008000013680D9A103212689A1A530303936019F1
:100810000690621B09929A1907929A1B08920D9AE8
:100820001C32D2F800A0CDF808A00D9A1432D2F8EC
:100830000090CDF80C900D9A0C32D2F80080CDF8D3
:1008400010800D9A121D176805970AEB070609EB31
:1008500008050AEB080C09EB07040CEB0403314A0A
:1008600003FB02FB304A02FB0AFACDF808A02F4A2C
:1008700002FB09F9CDF80C902D4A02FB08F8CDF8DF
:1008800010802C4A574305972B4A56432B4A554311
:100890002B4A0CFB02F32B4A624303EB0B0402EBE3
:1008A0000B0332190AEB02020292EA1809EB020268
:1008B00003922A1908EB02020492F218BB1805935E
:1008C0000C9A5192C21840F212011046FFF798FCA0
:1008D00000B2FFF79FFC43B2519A13800C9A0E327C
:1008E0005192059B069AD21A40F212011046FFF768
:1008F00087FC00B2FFF78EFC43B2519A13800C9A2A
:10090000921C5192049B079AD21840F21201104691
:10091000FFF776FC00F018B851110000DFC4FFFFAC
:100920007E180000A12500008E090000B3410000E0
:10093000546200000B30000033E3FFFFFDADFFFF0A
:100940003BC1FFFF84F3FFFF00B2FFF763FC43B23C
:10095000519A13800C9A0C325192049B079AD21A26
:1009600040F212011046FFF74BFC00B2FFF752FCB9
:1009700043B2519A13800C9A121D5192039B089A0C
:10098000D21840F212011046FFF73AFC00B2FFF70E
:1009900041FC43B2519A13800C9A0A325192039B44
:1009A000089AD21A40F212011046FFF729FC00B251
:1009B000FFF730FC43B2519A13800C9A921D51926A
:1009C000029B099AD21840F212011046FFF718FC58
:1009D00000B2FFF71FFC43B2519A13800C9A083201
:1009E0005192029B099AD21A40F212011046FFF767
:1009F00007FC00B2FFF70EFC43B2519A13800C9A29
:100A000010320C920D9A20320D929DF82820521C23
:100A10008DF82820D5E6DDF800E052B07047FFFFE2
:100A200085B0CDF800E0154D0346002922D904AC6D
:100A30000193ADF80810039522461846104C24681F
:100A4000A047039DBDF80810019B04460020BDF897
:100A50001020904206D222782A706D1C641C401C23
:100A600080B2F4E7BDF81020891A89B2BDF81020D1
:100A70009B18DAE7DDF800E005B07047CC000220F3
:100A8000D800022081B0002A1AD94B1E5EB2009015
:100A9000C8B21146009A002E0BDB9519094C236849
:100AA0001B782B7023461B685B1C2360761E76B276
:100AB000F1E71218491E0091C1B21046009AE2E710
:100AC00001B070472009022081B0CDF800E008484D
:100AD000007800F00700C0B210B1FFF7ABFBF6E7FB
:100AE0001020FFF737FCDDF800E001B0704700BFD1
:100AF0007005022081B0C308DBB2DC02A4B28B080F
:100B0000DBB25B019BB21C43A4B2D308DBB244EA64
:100B1000030398B201B0704782B0CDF800E0ADF8A1
:100B200004200AB201B2002904DB184B1B88994249
:100B300000D200E026E0002A04DB154B1B889A4215
:100B400000D200E01EE0134C23686FF30C332360E7
:100B500004F0ECFD38B193B28AB299B290B20E4C67
:100B60002468A04704E088B291B20C4C2468A047E6
:100B7000BDF804000A4C2468A047064C236843F4DF
:100B800080532360DDF800E002B07047C00002200F
:100B9000C20002201414024030090220340902204D
:100BA0003809022081B0244900EA010108460022E8
:100BB00018E0012038E0022036E0042034E008206C
:100BC00032E0102030E020202EE040202CE0802079
:100BD0002AE040F2001027E040F2002024E040F23A
:100BE000004021E015498842E3D015498842E2D00F
:100BF00014498842E1D014498842E0D01349884220
:100C0000DFD013498842DED012498842DDD0124934
:100C10008842DCD011498842DBD011498842DBD0C0
:100C200010498842DBD010460F49096841EA0002AA
:100C30000D490A6001B0704700FCFFFF0000024050
:100C40000004024000080240000C02400010024074
:100C50000014024000180240001C02400020024024
:100C600000240240002802403038024081B0214870
:100C700000784508EDB20027AF4238D279011E480E
:100C800041180020088079011C4841180020088084
:100C90000126102E28D279011748411870000C182F
:100CA000731E1BB2580008180288390114484018F6
:100CB000C0180078101880B24000208079010F48D9
:100CC000411870000C18731E1BB2580008180288D7
:100CD00039010C484018C0180078101880B2400044
:100CE0002080761CF6B2D4E77F1CFFB2C4E7002058
:100CF00001B0704784020220E6040220260502208B
:100D000085020220A504022081B0CDF800E085B262
:100D10001449097849B914490022084640F20001F3
:100D200003F0AAFB01220F490A70104909888D427D
:100D300001D2002011E00E4909888D4201D900201E
:100D40000BE00A490988691A89B28A0092B20949F6
:100D50000968083189180978C8B2DDF800E001B0E7
:100D6000704700BFA102002012030208C400022045
:100D7000C6000220C800022086B0CDF800E0ADF821
:100D80000C00ADF81010ADF81420BDF91040BDF9FD
:100D90000C30A34207DDBDF90C00BDF91030ADF8F1
:100DA0000C30ADF81000BDF90C30002B04DA002334
:100DB0001BB2ADF80C3006E04C4B1C88BDF90C3072
:100DC000A34200D38EE0BDF91030002B00DA89E099
:100DD000464B1C88BDF91030A34204D3434B1B88FB
:100DE0005B1EADF8103001238DF80830404B1C78A5
:100DF0009DF80830A34200F275809DF8080000F0CD
:100E000001031BB21BB9414209B208B2FFE744100B
:100E100024B221B2BDF914301B191BB2002B08DB20
:100E2000BDF914305C1824B2324B1B889C4200D2AE
:100E300000E051E0304B1B78002B37D12F4C23685A
:100E40006FF30C33236004F071FC60B1BDF9143012
:100E50005C18A3B2BDF91020A1B2BDF90C00284C5A
:100E60002468A04708E0BDF914305C18A1B2BDF9B0
:100E70000C00244C2468A047BDF90C00BDF91030CB
:100E800098420DD8204B1C88ADF80400A0B21F4C2E
:100E90002468A047BDF80400411C89B288B2EDE780
:100EA000164C236843F48053236015E0BDF90C0011
:100EB000BDF9103098420FD8134B1B88ADF80400D1
:100EC0009AB2BDF9141000B2FFF726FEBDF8040077
:100ED000431C99B288B2EBE79DF808305B1C8DF893
:100EE000083083E7DDF800E006B07047C00002205C
:100EF000E1000220C2000220A202002014140240DD
:100F00003009022034090220260902203809022073
:100F1000020292B241EA02039BB2014A1360704797
:100F2000141802408AB0CDF800E040F20001ADF89C
:100F3000241000218DF82610B5490988884200D276
:100F400062E1B4490988884200D95DE1B049098865
:100F5000411A89B28A0092B2AF49096808318918EA
:100F600008460421FFF75CFDAC4803788DF8273074
:100F7000411C0978CAB2811C097809025218C11CA7
:100F8000097809045218A449096889180491DA08F3
:100F9000D2B2A3490988514389B2069103F00701EF
:100FA000C9B221B19E490A88069989180691069905
:100FB000089105AC2246069904989A4C2468A047EB
:100FC0000446059A049989180491059A0699891A84
:100FD0000691002107919449097821B19249097835
:100FE000022900D08CE091490988ADF80A1000214F
:100FF0008DF8091020468A490A889DF80910914207
:1010000080F070808A490988ADF8241000218DF89D
:101010000C1000218DF8081004469DF827209DF83B
:101020000810914252D29DF80C1059BB0799491CE7
:101030000791089A059991421BD2059A0799914206
:1010400015D90121079105AC224606990498754CE3
:101050002468A047044606990891059A04998918BE
:101060000491059A0699891A0691204600E02046C7
:1010700000E0204601788DF82610401C01218DF8F3
:101080000C1000E020469DF80C209DF82610114021
:10109000C9B251B16749098801908AB2BDF80A10F6
:1010A000BDF82400FFF738FD0198BDF82410491C55
:1010B000ADF824109DF80C1049008DF80C109DF827
:1010C0000810491C8DF808100446A6E7BDF80A1060
:1010D000491CADF80A109DF80910491C8DF809103B
:1010E000204688E75049097829B9BDF824104A1CE0
:1010F0004F490A8003E0BDF80A204C490A8083E08A
:101100004B490988ADF80A1000218DF809102046D6
:1011100043490A889DF80910914280F07080434944
:101120000988ADF8241000218DF80C1000218DF8ED
:10113000081004469DF827209DF80810914252D2CD
:101140009DF80C1059BB0799491C0791089A0599FD
:1011500091421BD2059A0799914215D90121079115
:1011600005AC2246069904982E4C2468A0470446F4
:1011700006990891059A049989180491059A069987
:10118000891A0691204600E0204600E020460178BA
:101190008DF82610401C01218DF80C1000E020462F
:1011A0009DF80C209DF826101140C9B251B121497B
:1011B000098801908AB2BDF82410BDF80A00FFF733
:1011C000ABFC0198BDF82410491EADF824109DF821
:1011D0000C1049008DF80C109DF80810491C8DF872
:1011E00008100446A6E7BDF80A10491CADF80A101D
:1011F0009DF80910491C8DF80910204688E7BDF8B4
:1012000024104A1E09490A80DDF800E00AB0704740
:10121000C4000220C6000220DC000220CC00022014
:10122000D6000220D8000220E0000220E2000220C6
:10123000E4000220E600022083B0CDF800E087B28F
:101240001FFA81F81FFA82F91FFA83FAB9F1000F29
:1012500001D1B8B24CE0D14502D11FFA88F047E085
:1012600002AE0DF1060501AC33462A462146B8B25E
:10127000FFF7D2F80DF109060DF107050DF1050490
:1012800033462A4621461FFA88F0FFF7C5F81FFAB1
:1012900089F69DF805509DF804402C1B24B2744338
:1012A00094FBFAF59DF8044004EB05081FFA89F653
:1012B0009DF807509DF806402C1B24B2744394FB04
:1012C000FAF59DF8064067191FFA89F69DF809504E
:1012D0009DF808402C1B24B2744394FBFAF59DF84A
:1012E00008406419E2B2F9B25FFA88F0FFF702FC35
:1012F000DDF800E003B0704788B0CDF800E0ADF84D
:101300001800ADF81C1015B299B2A8B202F00EFD8B
:10131000BDF91840AC4207D1BDF9182019B2BDF98A
:101320001C0000F0A3FA2AE1BDF91C409C4207D141
:10133000BDF91C2029B2BDF91800FFF71DFD1EE103
:101340000024ADF81240BDF918402C1B24B2ADF8B2
:101350000840002C0ADABDF908406442ADF80840A4
:10136000BDF81240641EADF8124004E0BDF8124012
:10137000641CADF812400024ADF81440BDF91C40C7
:101380001C1B24B2ADF80A40002C0ADABDF90A4051
:101390006442ADF80A40BDF81440641EADF8144034
:1013A00004E0BDF81440641CADF814400024ADF80E
:1013B0001640BDF90A50BDF90840AC4246DABDF806
:1013C0001640641CADF81640BDF90800BDF90A408E
:1013D000ADF80840ADF80A00BDF91800BDF91C4091
:1013E000ADF81840ADF81C00BDF81200BDF814406F
:1013F000ADF81240ADF8140040F2010A5FFA8AF02D
:10140000614C2478A04220D8C1B201F0010424B27A
:101410001CB94A4212B211B2FFE74E1036B25B4C11
:101420002588BDF91C40A4198DF80400AAB2BDF9A5
:10143000181020B2FFF770FB9DF8040000F1010ABC
:101440005FFA8AFA5FFA8AF0DAE727E040F2010AE7
:101450005FFA8AF04C4C2478A0421FD8C1B201F048
:10146000010424B21CB94C4222B211B2FFE74E1063
:1014700036B2464C2588BDF91C40A4198DF80400ED
:10148000AAB221B2BDF91800FFF746FB9DF804008F
:10149000441C5FFA84FA5FFA8AF0DBE7BDF9084082
:1014A0006400ADF81040BDF90A4065002DB2ADF8FA
:1014B0000E50BDF908402C1BADF80C40BDF908409A
:1014C000641E24B2ADF80840002C58DBBDF90C4076
:1014D000002C0DDBBDF81450BDF91C406419ADF8AB
:1014E0001C40BDF91050BDF90C40641BADF80C4018
:1014F000BDF81250BDF918406419ADF81840BDF997
:101500000E50BDF90C406419ADF80C4001201E4C82
:101510002478A04232D8C5B205F0010424B214B92F
:10152000694209B200E029B2491009B2BDF816407B
:101530007CB1164C2588BDF91C4064188DF8040058
:10154000AAB2BDF9181020B2FFF7E6FA9DF8040020
:101550000EE00E4C2588BDF91C4064188DF804007F
:10156000AAB221B2BDF91800FFF7D6FA9DF804001F
:10157000441C5FFA84F85FFA88F0C8E79EE7DDF85C
:1015800000E008B0704700BFE100022026090220F9
:1015900081B0CDF800E00F490988884200D215E0FB
:1015A0000D490988884200D910E00A490988411A82
:1015B00089B28A0092B20949096808318918084637
:1015C0000421FFF72DFA06480178C8B2DDF800E0E3
:1015D00001B07047C4000220C6000220DC000220D7
:1015E000CC00022084B0CDF800E0002680480078CE
:1015F000864280F0F7807F480088002837D97C48F1
:1016000001787C480088414389B27B480088884241
:1016100030D1FFF759FAADF80A004FF6D071884281
:1016200006D3BDF80A104FF6D770814200D802E009
:101630000C217248017000208DF80800F2B29DF86C
:10164000080003280DD29DF8080041006C4841189D
:10165000002000B208809DF80800401C8DF80800AA
:10166000EDE70021644801805FFA82F801E05FFA4B
:1016700086F801E05FFA86F800208DF808009DF8F2
:101680000800402810D24FEAC8115E4841189DF862
:10169000080040000918002000B208809DF80800EA
:1016A000401C8DF80800EAE7574800EB0802117863
:1016B000564840180078C101554841185548016006
:1016C00011785548401803781A0154488118544835
:1016D0000160544881185448016059015348411829
:1016E00053480160FEF754FE4FEAC8124549891875
:1016F000039100F00F00FEF79DFE434901EB080146
:1017000009784A003E498918B1F900104118039838
:1017100001803D4800EB080000784100384842183D
:101720004FEAC81137484018B0F900001080012373
:10173000354800EB080001783E4840180278110156
:101740003D4841183648016011023C48411836486E
:10175000016051013A484118354801605FFA83F948
:101760005FFA88F3B9F1400F29D28DF80430FEF703
:101770000FFE9DF80430C2B20109C9B209EB0101A4
:10178000CFB200B91BE03F2F02D90D211B480170D9
:10179000D9011C4841182B48C0190078400008188E
:1017A000039002F00F008DF80430FEF743FE9DF821
:1017B000043003990880781C5FFA80F9D2E70E495B
:1017C0000888401C088013480268D9010D48401859
:1017D0008DF804301146FEF75FFE9DF80430581C6A
:1017E000C6B203E70020DDF800E004B0704700BF98
:1017F0007105022082020220720802206C0502207C
:101800007C0802207205022074080220FE000220DB
:10181000020102209008022069050220A50402208E
:1018200084080220C5040220880802202605022020
:101830008C0802206605022085020220A5020220F3
:10184000E60402205C1F020881B0ADF800100146DA
:10185000BDF8000001F21C021368C3F3C01202B904
:10186000F8E701F22802106001B0704786B0CDF8A9
:1018700000E0ADF8041001B2BDF90400814203DDBF
:101880008BB201B218B2FFE7002902DA002109B2D7
:1018900004E02F4B1B88994200D355E0002800DA62
:1018A00052E02B4B1B88984205D3294B1B885B1EAB
:1018B00018B203B200E003B2012015B20AB219B2A5
:1018C000244B1B7898423FD8C4B204F001031BB2EA
:1018D00013B9644224B2FFE763101BB21EB2EB18C7
:1018E0001BB2002B06DBAC1924B21B4B1B889C429D
:1018F00000D200E025E097B28F4222D8174B1C8817
:10190000AB198DF80400ADF80810ADF80C20ADF857
:101910001050ADF81260ADF81470A2B239B218B21E
:10192000FFF7FAF8BDF81470BDF91260BDF9105058
:10193000BDF90C20BDF908109DF804007F1CBFB252
:10194000DAE7401CC0B2BBE7DDF800E006B0704744
:10195000C2000220E1000220C0000220260902206D
:1019600089B0CDF800E0ADF81800ADF81C108DF886
:101970002030E24E34788DF81440E14D2C88ADF8DB
:10198000164001243470DF4C24882C80BDF91840A7
:10199000A41A24B2641CADF80C40BDF91840A41878
:1019A00024B2641EADF80E40BDF91C40A41A24B246
:1019B000641CADF81040BDF91C40A41824B2641E8C
:1019C000ADF81240002424B2ADF80840BDF918501B
:1019D000BDF91C40641BADF80A40ADF80620540068
:1019E00024B2C4F10304ADF80440BDF90640651CFF
:1019F0002DB2BDF90840AC4280F29B82C24C2478E3
:101A0000002C00F0AE81C14C2478002C40F0CD8039
:101A1000BDF91050BDF91240671BBDF90650BDF964
:101A20001C4065192DB2BDF910402E1BB84C2588FD
:101A3000B84C2488BBB2B2B2A9B2A0B2FFF7FCFB8B
:101A4000012102F033F9BDF90650BDF91C406719B8
:101A5000BDF90850BDF91840661BBDF90850BDF925
:101A6000184064193AB231B220B2FFF785F9BDF9D6
:101A70001050BDF91240671BBDF90650BDF91C405E
:101A8000651B2DB2BDF910402E1BA14C2588A14C21
:101A90002488BBB2B2B2A9B2A0B2FFF7CDFB01213C
:101AA00002F004F9BDF90650BDF91C40671BBDF9F1
:101AB0000850BDF91840661BBDF90850BDF9184023
:101AC00064193AB231B220B2FFF756F9BDF910509D
:101AD000BDF91240671BBDF90850BDF91C406519DE
:101AE0002DB2BDF910402E1B894C2588894C2488C5
:101AF000BBB2B2B2A9B2A0B2FFF79EFB012102F0C5
:101B0000D5F8BDF90850BDF91C406719BDF906505C
:101B1000BDF91C40651B2DB2BDF90A402E1BBDF955
:101B20000650BDF91C4065192DB2BDF90A402C1BA9
:101B30003AB231B220B2FFF71FF9BDF91050BDF92A
:101B40001240671BBDF90850BDF91C40651B2DB242
:101B5000BDF910402E1B6E4C25886E4C2488BBB2FC
:101B6000B2B2A9B2A0B2FFF767FB012102F09EF862
:101B7000BDF90850BDF91C40671BBDF90650BDF901
:101B80001C40651B2DB2BDF90A402E1BBDF9065045
:101B9000BDF91C4065192DB2BDF90A402C1B3AB2A3
:101BA00031B220B2FFF7E8F8DAE0BDF90C50BDF928
:101BB0000E40671BBDF90850BDF9184065192DB2DC
:101BC000BDF90C402E1B524C2588524C2488BBB2C8
:101BD000B2B2A9B2A0B2FFF72FFB012102F066F862
:101BE000BDF90850BDF918406719BDF90650BDF997
:101BF0001C40661BBDF90650BDF91C4064193AB281
:101C000031B220B2FFF732FEBDF90C50BDF90E40E3
:101C1000671BBDF90850BDF91840651B2DB2BDF911
:101C20000C402E1B3A4C25883A4C2488BBB2B2B2E9
:101C3000A9B2A0B2FFF700FB012102F037F8BDF90D
:101C40000850BDF91840671BBDF90650BDF91C408E
:101C5000661BBDF90650BDF91C4064193AB231B299
:101C600020B2FFF703FEBDF90C50BDF90E40671B13
:101C7000BDF90650BDF91C4065192DB2BDF90A40E9
:101C80002D1B2DB2BDF90C402E1B214C2588214C5B
:101C90002488BBB2B2B2A9B2A0B2FFF7CDFA01213B
:101CA00002F004F8BDF90650BDF91C4065192DB2CB
:101CB000BDF90A402F1BBDF90850BDF91C40661B39
:101CC000BDF90850BDF91C4064193AB231B220B2D6
:101CD000FFF7CCFDBDF90C50BDF90E40671BBDF9F7
:101CE0000650BDF91C40651B2DB2BDF90A402D1BE5
:101CF0002DB2BDF90C402E1B054C0DE0E100022079
:101D0000260902202E090220250902202809022086
:101D10002C0902202A09022025888C4C2488BBB279
:101D2000B2B2A9B2A0B2FFF787FA012101F0BEFF5B
:101D3000BDF90650BDF91C40651B2DB2BDF90A4026
:101D40002F1BBDF90850BDF91C40661BBDF908509A
:101D5000BDF91C4064193AB231B220B2FFF786FDDA
:101D6000BCE09DF82040002C58D1BDF90850BDF9C9
:101D700018406719BDF90650BDF91C40661BBDF936
:101D80000650BDF91C4064193AB231B220B2FFF7D7
:101D90006DFDBDF90850BDF91840671BBDF906502F
:101DA000BDF91C40661BBDF90650BDF91C40641905
:101DB0003AB231B220B2FFF759FDBDF90650BDF974
:101DC0001C4065192DB2BDF90A402F1BBDF9085002
:101DD000BDF91C40661BBDF90850BDF91C406419D3
:101DE0003AB231B220B2FFF741FDBDF90650BDF95C
:101DF0001C40651B2DB2BDF90A402F1BBDF90850D0
:101E0000BDF91C40661BBDF90850BDF91C406419A2
:101E10003AB231B220B2FFF729FD5FE0BDF90650BA
:101E2000BDF91C406719BDF90850BDF91840661B83
:101E3000BDF90850BDF9184064193AB231B220B268
:101E4000FEF79AFFBDF90650BDF91C40671BBDF9AE
:101E50000850BDF91840661BBDF90850BDF918407F
:101E600064193AB231B220B2FEF786FFBDF90850CC
:101E7000BDF91C406719BDF90650BDF91C40651B32
:101E80002DB2BDF90A402E1BBDF90650BDF91C400C
:101E900065192DB2BDF90A402C1B3AB231B220B2FD
:101EA000FEF76AFFBDF90850BDF91C40671BBDF97C
:101EB0000650BDF91C40651B2DB2BDF90A402E1B12
:101EC000BDF90650BDF91C4065192DB2BDF90A4097
:101ED0002C1B3AB231B220B2FEF74EFFBDF90440DE
:101EE000002C0BDABDF90840A40024B2A51D2DB2C8
:101EF000BDF904406419ADF8044014E0BDF9065082
:101F0000BDF90840641B24B2A40024B204F20A05FF
:101F10002DB2BDF904406419ADF80440BDF9064086
:101F2000641EADF80640BDF90840641CADF80840D9
:101F30005BE59DF81450064C2570BDF81650054C15
:101F40002580DDF800E009B0704700BF2A090220B3
:101F5000E10002202609022086B0CDF800E087B219
:101F600040F2000500267249097849B971490022FA
:101F7000084640F2000102F07FFA01226C490A7023
:101F80006D4909888F4200D2CEE06C4909888F42A2
:101F900000D9C9E068490988791A89B28A0092B2E1
:101FA000674C216808318B181878591C0978CAB217
:101FB000991C097809025218D91C09780904521889
:101FC000214609688C185F49097821B15D49097873
:101FD000022900D057E05C490B880022A046ACB231
:101FE0005A4909888A4244D259490D880027002459
:101FF000844238D22FB998F8006008F1010801270F
:10200000FFE706EA0701C9B231B3524909888DF8E2
:102010000460CDF808808DF80C708DF80D20ADF8B7
:102020000E308DF81000ADF812508DF814408AB2C1
:1020300019B228B2FEF770FD9DF81440BDF8125099
:102040009DF81000BDF80E309DF80D209DF80C7025
:10205000DDF808809DF804606D1CADB27900CFB248
:10206000641CE4B2C4E75B1C9BB2521CD2B2ACB29B
:10207000B6E73449097819B9621C35490A8001E08C
:1020800031490B8050E032490B8800222F490988E2
:102090008A4246D22C490D8800270021A046CCB2A6
:1020A000844238D22FB998F8006008F1010801275E
:1020B000FFE706EA0701C9B231B3264909888DF85E
:1020C0000460CDF808808DF80C708DF80D20ADF807
:1020D0000E308DF81000ADF812508DF814408AB211
:1020E00029B218B2FEF718FD9DF81440BDF8125041
:1020F0009DF81000BDF80E309DF80D209DF80C7075
:10210000DDF808809DF804606D1EADB27900CFB295
:10211000641CE4B2C4E75B1C9BB2521CD2B24446BE
:10212000B4E76A1E08490A80DDF800E006B070478F
:10213000A102002012030208C4000220C6000220EF
:10214000C8000220E0000220E2000220D6000220A7
:10215000E4000220E600022001480078704700BF3A
:102160000B03002082B08DED010ABDF80610C1F30B
:10217000C711411808B209B2002904DA4FF0000172
:1021800000EE101A19E0B0F1FF0F0DDDB5EEC00A38
:10219000F1EE10FA04DA6FF4000100EE101A0CE010
:1021A000074900EE101A08E082B2BDF8061062F38B
:1021B000CE11ADF806109DED010A02B0704700BFC8
:1021C000FFFF7F7F81B0F0EE400A8A00821812ED97
:1021D000000AB0EE401AB0EE410AB0EE601A79B1D2
:1021E00061EE000A4A1E12B211B29200821812ED7C
:1021F000000A30EE800A0DED000A1DED000AEEE740
:1022000001B070470000000049F2FA67C0F24917B8
:102210007F1EFDD100BF00BF00BF00BF00BF7047E1
:1022200042F62A27C0F200077F1EFDD100BF00BF83
:1022300000BF00BF00BF704740F2D207C0F20007E6
:102240007F1EFDD100BF00BF00BF00BF00BF7047B1
:1022500082B08DED010A01A90968C90D01F0FF01E5
:1022600009B27F3909B208B200290EDA9DED010AE0
:10227000B5EEC00AF1EE10FA02DABFEE000A24E071
:102280004FF0000100EE101A1FE081B2182902D9A8
:102290009DED010A19E09DED010ABDEE400A10EE28
:1022A000101A00EE901AF8EEE00AB0EE601A9DEDFA
:1022B000010AF4EEC00AF1EE10FA04DDB7EE000AEE
:1022C00031EE400A01E0B0EE410A02B07047FFFF74
:1022D00084B0CDF800E08DB21646864B00EA0303C9
:1022E0001F461846FEF75EFCB5F1FF0F20D13C6893
:1022F000814B04EA03031846804B9E4214D145F2F9
:10230000555340EA03033B603D1D2C686FF0FF030B
:1023100004EA03032B6007F208052C684FF6FF73ED
:1023200044EA03032B60E1E0422E01D13860DDE096
:102330004FF6FF739D4213D1704B9E420BD14FF06D
:1023400055333B603C1D0023236007F208044FF027
:10235000FF332360CAE0422E02D100233B60C5E078
:1023600006F001030BB103200AE006F008030BB1ED
:10237000022005E006F004030BB1012000E000207C
:1023800006F401230BB103210AE006F400630BB14C
:10239000022105E006F480630BB1012100E0002179
:1023A00006F020030BB1012200E0002206F4807346
:1023B0000BB1022305E006F080030BB1012300E01E
:1023C000002340F2000A01921FFA85F9B046064642
:1023D00018460A460199BAF1100F80F087804FF035
:1023E000010303FA0AF409EA0403A34240F07B80E4
:1023F0004FEA4A044FF00303A340DC433B68234009
:102400003B604FEA4A0306FA03F43B6823433B6010
:1024100008F00C033BB307F208054FEA4A044FF0FB
:102420000303A340DC432B6823402B6007F208051D
:102430004FEA4A0302FA03F42B6823432B603D1D45
:102440001FFA8AF44FF00103A340DC432B682340BA
:102450002B603D1D1FFA8AF48BB203FA04F4A4B278
:102460002B6823432B6007F20C051FFA8AF35C00EC
:10247000A4B24FF00303A340DC432B6823402B603E
:1024800007F20C054FEA4A0300FA03F42B682343D2
:102490002B6008F0080333B308F470031B0D8DF8AC
:1024A0000C30BAF1070F05D907F224030293AAF101
:1024B000080503E007F2200302935546AC004FF0F5
:1024C0000F03A340DC43029B1B6803EA0404029B46
:1024D0001C609DF80C40AB009C40029B1B6843EACB
:1024E0000404029B1C600AF1010A74E7DDF800E0B5
:1024F00004B0704700FCFFFF0000FFFF140008005D
:1025000081B0CDF800E0F0EE401A0023F5EEC01ADD
:10251000F1EE10FA03DAF1EE610A012301E0F0EEC8
:10252000610A284900EE101A20EE800AF0EE401AE7
:10253000FFF78EFE71EEC00AB1EE000A60EE200ACF
:10254000B0EE601AB0EE000AF4EEC00AF1EE10FA36
:102550000ADDB0EE000A31EE402A002B40F2000303
:1025600000D10123DBB201E0B0EE412AB7EE000A50
:10257000B4EEC02AF1EE10FA04DDB0EE000A30EE3F
:10258000422AFFE722EE020AF0EE401A042109B2C5
:102590000D48FFF717FE22EE002A032109B20B486F
:1025A000B0EE610AFFF70EFE82EE000AF0EE400A7E
:1025B00013B1B1EE600A01E0B0EE600ADDF800E0B0
:1025C00001B0704783F9223EB4200208C8200208F7
:1025D00081B0CDF800E041F21440C4F202004FF0A7
:1025E00001014FEAC121284A89B2FFF771FE27494C
:1025F00008686FF3CB20086041F21440C4F2020077
:102600004FF001014FEA41311F4A89B2FFF760FEE6
:102610001F49086840F40050086041F21440C4F2B9
:1026200002004FF001014FEA0131174A89B2FFF76A
:102630004FFE1849086840F48050086041F2144089
:10264000C4F202004FF001014FEA81310E4A89B213
:10265000FFF73EFE41F21440C4F202004FF00101C8
:102660004FEAC131084A89B2FFF732FE0A490868C9
:1026700040F4804008600949086840F40040086060
:10268000DDF800E001B070471400080014140240A7
:102690001414024014140240141402401414024092
:1026A00089B0CDF800E040F200080027B8F1000F33
:1026B00040F0F083012F40F0C4809F48007801284B
:1026C00006D101219D48017000219D480170B6E0AE
:1026D00099480078032840F0B2809A480078012891
:1026E00023D19948007801281FD198480078012803
:1026F0001BD197480078012817D196480078012807
:1027000013D19548007801280FD103218B4801701F
:1027100000219248017001219148017002219148E5
:10272000017000218648017089E086480078012800
:1027300026D185480078022822D1844800780128D3
:102740001ED18348007801281AD1824800780128D8
:1027500016D181480078012812D1042177480170F0
:1027600000217E48017000217D48017001217D48D3
:10277000017002217C4801700121714801705EE006
:1027800070480078022826D16F480078012822D1AD
:102790006E48007801281ED16D48007801281AD1B2
:1027A0006C480078012816D16B480078012812D1B6
:1027B00004216248017000216848017000216848C6
:1027C00001700121674801700221674801700221F0
:1027D0005B48017033E05B48007802282CD15A48EE
:1027E0000078022828D159480078012824D1584877
:1027F0000078012820D15748007801281CD156487C
:102800000078012818D106214C4801700021534856
:1028100001700021524801700021524801700021CE
:102820005148017001215148017002215048017046
:1028300003214348017002E001214E48017000F07D
:1028400029BB0DF10A0001220121FEF71BF99DF8B9
:102850000A00B0F1FF0F00D028E703A801220121F0
:10286000FEF710F9BEE213E312E340F201080FE3B2
:102870000EE30DE30CE30BE30AE309E308E307E3EC
:102880000DF10E0001220221FEF7FCF8BDF80E004A
:10289000082803D8022137480170F9E201220121FA
:1028A0003548FEF7EFF8012202213448FEF7EAF836
:1028B000012202213248FEF7E5F8012201211E48DB
:1028C000FEF7E0F81C480178032000B2484300B24C
:1028D00000F2080109B2BDF80E00884203D20321BC
:1028E00024480170D4E200208DF80B0012480178D2
:1028F0009DF80B00884256D29DF80B1021484018D5
:1029000001220121FEF7BEF80DF10A00012201218A
:10291000FEF7B8F89DF80B100A4841189DF80A0018
:10292000000908709DF80B10074841189DF80A002F
:1029300000F00F0000F028B8F4000220710502201A
:102940007A080220F8000220FB000220F900022091
:10295000FC000220FA000220FD0002207408022080
:1029600075080220760802207708022078080220E5
:10297000790802206C050220EF000220F2000220FC
:10298000F0000220F500022008709DF80B10D748D7
:10299000401801220121FEF775F89DF80B00401C3C
:1029A0008DF80B00A2E773E20DF10E000122022167
:1029B000FEF768F8BDF80E00102803D20421CC48B9
:1029C000017065E201A805220121FEF75BF801A86C
:1029D00000784A2815D101A8401C0078462810D15B
:1029E00001A8801C007849280BD101A8C01C0078E0
:1029F000462806D101A8001D007810B90121BD4864
:102A0000017001220121BC48FEF73CF8012201219E
:102A1000BA48FEF737F8B8480078012803D00521F6
:102A2000B348017034E233E20DF10E0001220221BD
:102A3000FEF728F8BDF80E00042804D10122022177
:102A4000AF48FEF71FF823E20DF10E00012202212C
:102A5000FEF718F8BDF80E00432803D20621A4485B
:102A6000017015E2FFE70DF10A0001220121FEF7D6
:102A700009F89DF80A0000F00F008DF812009DF88B
:102A80000A000209D2B29F4908781043087000205A
:102A90008DF813009DF81300402842D200208DF8D5
:102AA000140000208DF8150096480078A0B905A8FC
:102AB00001220121FDF7E6FF9DF81200C1019248B5
:102AC00042189DF8131091484018007840001118E2
:102AD0009DF8140008801EE005A801220121FDF7E1
:102AE000D1FF0DF1150001220121FDF7CBFF9DF86B
:102AF0001200C101844842189DF813108348401801
:102B00000078400012189DF81400010289B29DF867
:102B10001500081810809DF81300401C8DF8130054
:102B2000B8E77848007818B941208DF8090002E02C
:102B300081208DF809009DF80910BDF80E00401A9B
:102B400080B2ADF80E004328BFF48DAFA0E10DF1C7
:102B50000E0001220221FDF795FFBDF80E0013289B
:102B600003D207216248017092E1FFE70DF10A00EC
:102B700001220121FDF786FF9DF80A0000F00F00F9
:102B80008DF816009DF80A000009C0B200F001009F
:102B9000C0B28DF81A0048B99DF8160001015C48D2
:102BA000401807905B48401808900BE09DF816000D
:102BB00001015948401807909DF816000102574836
:102BC00040180890102201210798FDF75BFF0020B4
:102BD0008DF813000020ADF818009DF813001028A0
:102BE0000FD29DF81310079840180178BDF818000F
:102BF0004018ADF818009DF81300401C8DF8130024
:102C0000EBE7BDF80E00A0F2110189B2ADF80E108D
:102C1000BDF81800814212D39DF81A00012805D191
:102C2000BDF81800B0F5807F00D908E09DF81A00C3
:102C300020B9BDF81800102800D900E003E00821F1
:102C40002B48017014E0BDF8182001210898FDF709
:102C500019FFBDF81810BDF80E00421A92B2ADF877
:102C60000E202F490878401C0870132ABFF47EAF4D
:102C70000EE10DF10E0001220221FDF703FFBDF868
:102C80000E00032803D209211948017000E10DF15B
:102C90000A0001220121FDF7F5FE9DF80A0040001F
:102CA00000B2C11C09B2BDF80E00401AADF8100008
:102CB0009DF80A101B48007888420AD19DF80A0046
:102CC000400000B2C11C09B2BDF80E00884200D31A
:102CD00003E00A2106480170DAE040F2FF09002013
:102CE0008DF813005FFA88F70E481DE0FE00022001
:102CF0006C050220EC000220ED000220EE00022014
:102D00008202022001010220020102205C1F02084F
:102D1000A5040220C504022085020220A50202208B
:102D200084020220F400022001789DF813008842FA
:102D300037D20DF10A0001220121FDF7A3FE002286
:102D40005FFA89F8032A0CD25448801801789DF85C
:102D50000A00814202D15FFA82F802E0521CD2B22C
:102D6000F0E7B8F1030F14D20DF10A00012201219E
:102D7000FDF788FE4A4800EB08019DF80A0000F0C4
:102D80000F000870474800EB08019DF80A00000991
:102D900008709DF81300401C8DF813005FFA88F945
:102DA000A2E7BDF81020404908688018086001209B
:102DB0005FFA87F8C7B26BE00DF10E000122022125
:102DC000FDF760FEBDF80E00022803D20B21374844
:102DD00001705DE0BDF80E20334908688018801E40
:102DE000086055E09DF80C00D8283FF43CAD9DF8F4
:102DF0000C0001283FF438AD9DF80C00D9283FF4B1
:102E000034AD9DF80C00D0283FF432AD9DF80C0095
:102E1000D1283FF42EAD9DF80C00D2283FF42AAD06
:102E20009DF80C00D3283FF426AD9DF80C00D42863
:102E30003FF422AD9DF80C00D5283FF41EAD9DF85F
:102E40000C00D6283FF41AAD9DF80C00D7283FF4AB
:102E500016AD9DF80C00C0283FF412AD9DF80C0093
:102E6000E0283FF4A1AD9DF80C00DD283FF4DCAD77
:102E70009DF80C00DB283FF4E7AD9DF80C00C4285A
:102E80003FF465AE9DF80C00DA283FF4F2AE93E70C
:102E9000FFF70CBCDDF800E009B07047F500022038
:102EA0006605022069050220200902206C05022027
:102EB000044A118801F47F4189B240EA010111807E
:102EC000704700BF1418024093B0CDF800E0ADF891
:102ED0003C00ADF84010D44A1278002A40F06081DE
:102EE000D24A0392D24A0492D24A059200228DF825
:102EF00009209DF80920082A80F03F819DF80930BB
:102F0000CD4A1288D21811B293B2BDF84020D3181E
:102F10009BB2CA4A1288934280F0208102F006FCDC
:102F2000A8B1BDF840205418C54A1388BDF83C200C
:102F3000D3189BB203F20802ADF80410A1B298B204
:102F4000A3B2C04C2468A047BDF9041010E0BDF83E
:102F500040205418BA4A1388BDF83C20D218ADF866
:102F60000410A1B290B2B84C2468A047BDF9041077
:102F7000B64A1288914280F0E78000228DF808203E
:102F80009DF80820042A80F0DE809DF80820530078
:102F90001BB2AB4A1288D41821B2AD4A138822B2B0
:102FA0009A425CD2039AB2F90020803212B2D20166
:102FB00012B20692049AB2F900200792059AB2F969
:102FC00000200892089BB4225343069AD218D211CB
:102FD000ADF8041010B2FDF751FA8DF83500079BDB
:102FE0002C225343069AD41A089B5B225A43A21AF6
:102FF000D21110B2FDF742FA8DF83600079BE3229A
:103000005343069AD218D21110B2FDF737FABDF920
:1030100004108DF83700BDF83C2053189BB28D4A40
:10302000128893421BD29DF83520D208D2B2D30227
:103030009BB29DF836209208D2B2520192B213434D
:103040009BB29DF83720D208D2B243EA0204ADF811
:103050000410A0B2804C2468A047BDF90410039A64
:10306000921C0392049A921C0492059A921C059257
:103070004B1C1BB21DB2764A1288934254D2039A5B
:10308000B2F90020803212B2D20112B20692049A32
:10309000B2F900200792059AB2F900200892089B25
:1030A000B4225343069AD218D21110B2FDF7E6F9B2
:1030B0008DF83500079B2C225343069AD41A089B9F
:1030C0005B225A43A21AD21110B2FDF7D7F98DF83C
:1030D0003600079BE3225343069AD218D21110B24E
:1030E000FDF7CCF98DF83700BDF83C2053199BB2A1
:1030F000584A1288934217D29DF83520D208D2B28E
:10310000D3029BB29DF836209208D2B2520192B2FD
:1031100013439BB29DF83720D208D2B243EA02048F
:10312000A0B24D4C2468A047039A921C0392049AC3
:10313000921C0492059A921C05929DF80820521C3C
:103140008DF808201CE708E0039A121D0392049AE8
:10315000121D0492059A121D059208E0039A121D91
:103160000392049A121D0492059A121D05929DF86D
:103170000920521C8DF80920BBE6314C228802F24E
:1031800008039BB22380324A1288934206D300235D
:103190002B4A1380284B1A8808321A8000F0E0BBB3
:1031A000214A1278012A40F00E81224A04922B4AC9
:1031B00005920DF1250300221A705B1C08221A707B
:1031C00000228DF824209DF82420022A80F0E98036
:1031D0009DF82420D301154AD21803929DF824208B
:1031E000520112B25300134AD21804921B4AD21849
:1031F000059200228DF809209DF80920082A80F008
:10320000CA8000228DF808209DF80820082A80F046
:10321000BC809DF808300A4A1288D41825B20DF1F6
:103220002D039DF824201BE07A080220720502205D
:10323000F2050220720602201C090220C2000220B0
:103240001A0902203009022034090220F20002206B
:10325000F0000220C000022038090220F2060220FD
:103260009A181378DE4A1288D61836B29DF80920CB
:10327000B61836B2DB4A138822B29A4280F07C80BC
:10328000D94A1288964277D2039AB2F90020803246
:1032900012B2D20112B206929DF809205208D2B29F
:1032A000D3001BB29DF808209A1812B292B25300B4
:1032B000049AD218B2F9002007929BB2059AD2184C
:1032C000B2F900200892089AD301089A92019B183B
:1032D000089AD2009B1A089A92009B1A069AD21852
:1032E000D21110B2FDF7CAF8C208D2B2D202ADF8BC
:1032F0004820079A5301079AD2009B18079A920018
:103300009B18069AD41A089A9301089A52019B189E
:10331000089A92009B1A089A9A1AA21AD21110B20D
:10332000FDF7ACF88208D2B253019BB2BDF8482039
:103330001A43ADF84820079A1302079A52019B1AC4
:10334000079A52009B18079A9B18069AD218D21116
:1033500010B2FDF793F8C308DBB2BDF8482042EA8B
:103360000304BDF840209319BDF83C20521919B24E
:1033700010B2A2B2FDF7D0FB039A921C03929DF803
:103380000820521C8DF808203EE79DF80920521CA9
:103390008DF8092030E79DF82420521C8DF8242058
:1033A00011E7924C228802F208039BB223808D4AD7
:1033B0001288934206D300238C4A1380884B1A88C4
:1033C00010321A80CCE28A4A1278022A40F0F18048
:1033D000884A0492884A05920DF1270300221A7048
:1033E0005B1C08221A7000228DF824209DF82420EE
:1033F000022A80F0CC809DF82420D3017F4AD21885
:1034000003929DF82420920012B25300794AD218F8
:103410000492794AD218059200228DF809209DF86D
:103420000920082A80F0AD8000228DF808209DF840
:103430000820082A80F09F800DF129039DF82420A0
:103440009A181378694A1288D3189BB29DF80820FD
:103450009C1825B29DF80930614A1288D21816B21C
:10346000604A138822B29A4280F07C805E4A1288B9
:10347000964277D2039AB2F90020803212B2D2017A
:1034800012B206929DF80920D3001BB29DF80820C5
:103490005208D2B29A1812B292B25300049AD218B9
:1034A000B2F9002007929BB2059AD218B2F9002017
:1034B0000892089AD301089A92019B18089AD200A0
:1034C0009B1A089A92009B1A069AD218D21110B22F
:1034D000FCF7D4FFC208D2B2D202ADF84820079A56
:1034E0005301079AD2009B18079A92009B18069ADC
:1034F000D41A089A9301089A52019B18089A9200CC
:103500009B1A089A9A1AA21AD21110B2FCF7B6FFA7
:103510008208D2B253019BB2BDF848201A43ADF8DD
:103520004820079A1302079A52019B1A079A5200E1
:103530009B18079A9B18069AD218D21110B2FCF762
:103540009DFFC308DBB2BDF8482042EA0304BDF882
:1035500040209319BDF83C20521919B210B2A2B202
:10356000FDF7DAFA039A921C03929DF80820521C88
:103570008DF808205BE79DF80920521C8DF8092082
:103580004DE79DF82420521C8DF824202EE7174C7F
:10359000228802F210039BB22380124A12889342BF
:1035A00006D30023114A13800D4B1A8808321A8063
:1035B000D6E10F4A1278032A40F0D2810DF1290496
:1035C00000222270631C08221A70A31C00221A70A9
:1035D000E31C08221A700DF12D04002222700FE066
:1035E0001C090220F0000220F20002201A09022029
:1035F0007A08022072060220F206022072050220DA
:10360000631C00221A70A31C08221A70E31C0822F3
:103610001A700DF1310400222270631C04221A700A
:10362000A31C20221A70E31C24221A7000228DF899
:1036300024209DF82420042A80F081810DF12903A3
:103640009DF824209A181378C84A1288D218ADF829
:1036500038209DF82420D301C54AD21803920DF1D9
:1036600031039DF824209C1822785300C14AD218B7
:10367000049222785300C04AD218059200228DF895
:1036800009209DF80920082A80F053810DF12D03AF
:103690009DF824209A181378B84A1288D3189BB240
:1036A0009DF809209A1811B293B2BDF84020D318A2
:1036B0009BB2B34A1288934280F0328102F036F80E
:1036C000A8B1BDF840205418BDF83830BDF83C20F2
:1036D000D3189BB203F20802ADF80410A1B298B25D
:1036E000A3B2A84C2468A047BDF9041010E0BDF8AF
:1036F00040205418BDF83830BDF83C20D218ADF841
:103700000410A1B290B2A04C2468A047BDF90410E7
:103710009E4A1288914280F0FF8000228DF8082096
:103720009DF80820042A80F0F6809DF808205300B8
:103730001BB2BDF83820D41821B2954A138822B2A2
:103740009A426DD2039AB2F90020803212B2D201AD
:1037500012B206929DF809205208D2B2D3001BB2D1
:103760009DF80820520012B2521012B29A1812B2EA
:103770005300049AD218B2F900200792059AD21881
:10378000B2F900200892089BB4225343069AD2183B
:10379000D211ADF8041010B2FCF770FE8DF83500B0
:1037A000079B2C225343069AD41A089B5B225A4348
:1037B000A21AD21110B2FCF761FE8DF83600079BF9
:1037C000E3225343069AD218D21110B2FCF756FEE8
:1037D000BDF904108DF83700BDF83C2053189BB29A
:1037E0006C4A128893421BD29DF83520D208D2B27F
:1037F000D3029BB29DF836209208D2B2520192B207
:1038000013439BB29DF83720D208D2B243EA020498
:10381000ADF80410A0B2604C2468A047BDF90410B4
:10382000039A921C03924B1C1BB21DB2584A128879
:10383000934267D2039AB2F90020803212B2D201C9
:1038400012B206929DF809205208D2B2D3001BB2E0
:103850009DF80820520012B2521C12B2521012B23D
:103860009A1812B25300049AD218B2F900200792A3
:10387000059AD218B2F900200892089BB42253434B
:10388000069AD218D21110B2FCF7F8FD8DF8350067
:10389000079B2C225343069AD41A089B5B225A4357
:1038A000A21AD21110B2FCF7E9FD8DF83600079B81
:1038B000E3225343069AD218D21110B2FCF7DEFD70
:1038C0008DF83700BDF83C2053199BB2314A12885D
:1038D000934217D29DF83520D208D2B2D3029BB2C0
:1038E0009DF836209208D2B2520192B213439BB295
:1038F0009DF83720D208D2B243EA0204A0B2264C87
:103900002468A047039A921C03929DF80820521C39
:103910008DF8082004E702E0039A1032039202E0D7
:10392000039A103203929DF80920521C8DF8092049
:10393000A7E69DF82420521C8DF8242079E60B4C34
:10394000228802F210039BB22380114A128893420C
:1039500006D30023054A1380084B1A8810321A80B8
:103960000020DDF800E013B0704700BF1A09022004
:103970007205022072070220F20702201C090220B1
:10398000C20002203009022034090220F200022085
:10399000F0000220C00002203809022081B0CDF8DA
:1039A00000E0FEF715FEFEF72FFC7949086840F4A9
:1039B00000600860FEF728FCFEF726FC75490868E1
:1039C0006FF30C3008600120734C2468A04701207D
:1039D000714C2468A04701206F4C2468A047E22066
:1039E0006D4C2468A04723206C4C2468A04702201B
:1039F0006A4C2468A0475420684C2468A047E02003
:103A0000654C2468A0470120644C2468A047FEF759
:103A100007FCFEF705FCE0205F4C2468A04703206C
:103A20005E4C2468A047B0205B4C2468A047282047
:103A30005A4C2468A0472020584C2468A0470320F3
:103A4000564C2468A0471F20544C2468A0470120EE
:103A5000524C2468A047DF20504C2468A047002027
:103A60004E4C2468A047F0204B4C2468A04703200C
:103A70004A4C2468A0473A20474C2468A04760205D
:103A8000464C2468A047E620434C2468A047042005
:103A9000424C2468A0473A20404C2468A047B620F6
:103AA0003E4C2468A047B4203B4C2468A047042027
:103AB0003A4C2468A0472020384C2468A0470020B6
:103AC000364C2468A0473020344C2468A04730206E
:103AD000324C2468A0470020304C2468A0470020C6
:103AE0002E4C2468A04700202C4C2468A047B62008
:103AF000294C2468A0470220284C2468A0470D20A8
:103B0000264C2468A0470020244C2468A047162097
:103B1000224C2468A0470420204C2468A0470020A1
:103B20001E4C2468A04700201C4C2468A047362067
:103B3000194C2468A0471A4801881A48008888420E
:103B40000CD2FEF709FB20B1A020144C2468A0473A
:103B500003E06020114C2468A0470BE0FEF7FCFA5C
:103B600020B100200D4C2468A04703E0C0200B4C7E
:103B70002468A0472920084C2468A0470549086804
:103B800040F480500860DDF800E001B0704700BFED
:103B9000141402401414024044090220480902206F
:103BA000C2000220C000022081B00248008801B09B
:103BB000704700BF0803002081B0CDF800E0F0EEB0
:103BC000401AF5EEC01AF1EE10FA02D1B7EE000A73
:103BD0005DE0314900EE101AF4EEC01AF1EE10FA71
:103BE00003DD2E4900EE101A51E02D4900EE101AA7
:103BF000F4EEC01AF1EE10FA04DA4FF0000100EE14
:103C0000101A44E0F5EEC01AF1EE10FA40F200018D
:103C100000DA0121CBB2C9B211B1F1EE610A01E0C3
:103C2000F0EE610A1F4900EE101A20EE800AF0EE55
:103C3000401AFEF70DFBBDEE400A10EE101A09B255
:103C40000CB200EE101AB8EEC00A31EEC00A40F213
:103C5000090109B21448FEF7B5FA20B2FEF782FA5C
:103C6000F0EE400A8BB10D4900EE101AF4EEC00AD6
:103C7000F1EE10FA04D14FF0000100EE101A06E048
:103C8000B7EE000A80EE200A01E0B0EE600ADDF82F
:103C900000E001B0704700BFFED4B242FFFF7F7F5B
:103CA00050ACAEC23BAAB83F6C20020881B0034AB8
:103CB0001080034A117001B0704700BF260902202E
:103CC000E100022082B0CDF800E041F61401C4F218
:103CD0000201064800880191054A81B20198FEF769
:103CE000F7FADDF800E002B0704700BF0C030020D7
:103CF0001400080081B001210148017001B0704733
:103D0000A302002081B00091014600980B461C469A
:103D10005A1C15460346421C10461A782270227817
:103D20000AB12B46F3E7084601B0704781B0034A59
:103D30001080034A118001B0704700BFE4000220E8
:103D4000E200022081B0BDF80450BDF80860074CC5
:103D50002070074C2180074C2270074C2370074CC1
:103D60002580074C268001B0704700BF240902203F
:103D70002E09022025090220280902202A090220F2
:103D80002C09022083B0CDF800E0ADF80400ADF8B6
:103D900008102E4A12785A2A28D102202C4C246866
:103DA000A047BDF80420140AE0B22A4C2468A047BA
:103DB0000320274C2468A047BDF80400254C246844
:103DC000A0470620224C2468A047BDF80820140A0A
:103DD000E0B2204C2468A04707201D4C2468A0476F
:103DE000BDF808001B4C2468A04727E00220184CAF
:103DF0002468A047BDF80820140AE0B2154C2468D6
:103E0000A0470320124C2468A047BDF80800114CBD
:103E10002468A04706200E4C2468A047BDF8042063
:103E2000140AE0B20B4C2468A0470720084C246811
:103E3000A047BDF80400074C2468A0472220044C8A
:103E40002468A047DDF800E003B070470A030020B3
:103E5000440902204809022083B0CDF800E0ADF803
:103E60000400ADF808102A20134C2468A047BDF8C0
:103E70000420140AE0B2114C2468A047BDF80400E5
:103E80000E4C2468A0472B200B4C2468A047BDF89B
:103E90000820140AE0B2094C2468A047BDF80800C5
:103EA000064C2468A0472C20034C2468A047DDF86A
:103EB00000E003B0704700BF440902204809022017
:103EC00083B0CDF800E0ADF80400ADF808102A206A
:103ED000134C2468A047BDF80420140AE0B2114C2A
:103EE0002468A047BDF804000E4C2468A0472B208E
:103EF0000B4C2468A047BDF80820140AE0B2094C16
:103F00002468A047BDF80800064C2468A0472C2070
:103F1000034C2468A047DDF800E003B0704700BF01
:103F2000440902204809022083B0CDF800E0ADF832
:103F30000400ADF808102A20134C2468A047BDF8EF
:103F40000420140AE0B2114C2468A047BDF8040014
:103F50000E4C2468A0472B200B4C2468A047BDF8CA
:103F60000820140AE0B2094C2468A047BDF80800F4
:103F7000064C2468A0472C20034C2468A047DDF899
:103F800000E003B0704700BF440902204809022046
:103F900083B0CDF800E09EB293B28AB281B2494CB0
:103FA0002488B4F5F07F05D8474C2488B4F5F07F19
:103FB00000D804E040F2203840F2E01703E040F27D
:103FC000E01840F21017414C24785A2C1DD1FEF70E
:103FD000C3F868B1A8F10105ADB2AC1BADF804405F
:103FE000AC1AADF80640ADF80810ADF80A300BE099
:103FF000ADF80420ADF806607D1EADB2EC1AADF848
:1040000008406C1AADF80A401CE0FEF7A5F888B12C
:10401000A8F10105ADB2EC1AADF804406C1AADF888
:1040200006407D1EADB2AC1BADF80840AC1AADF831
:104030000A4007E0ADF80410ADF80630ADF80820EE
:10404000ADF80A602A20224C2468A047BDF804403D
:10405000240AE0B21F4C2468A047BDF804001D4CA0
:104060002468A047BDF80640240AE0B2194C246831
:10407000A047BDF80600174C2468A0472B20144C1D
:104080002468A047BDF80840240AE0B2114C246817
:10409000A047BDF808000F4C2468A047BDF80A40AF
:1040A000240AE0B20B4C2468A047BDF80A00094C72
:1040B0002468A0472C20064C2468A047DDF800E0C7
:1040C00003B07047C0000220C20002200A03002093
:1040D000440902204809022083B0CDF800E09EB2D6
:1040E00093B28AB281B2514C2488B4F5F07F05D8DE
:1040F0004F4C2488B4F5F07F00D804E040F220381B
:1041000040F2E01712E0494C2488B4F5A07F05D8AE
:10411000474C2488B4F5A07F00D804E040F2E018B2
:1041200040F2101702E040F24018F027414C24788A
:104130005A2C1DD1FEF710F860B1ADF80420ADF88F
:1041400006607D1EADB2EC1AADF808406C1AADF8F1
:104150000A400CE0A8F10105ADB2AC1BADF804407B
:10416000AC1AADF80640ADF80810ADF80A301CE006
:10417000FDF7F2FF40B1ADF80410ADF80630ADF830
:104180000820ADF80A6010E0A8F10105ADB2EC1A04
:10419000ADF804406C1AADF806407D1EADB2AC1B04
:1041A000ADF80840AC1AADF80A402A20224C246829
:1041B000A047BDF80440240AE0B2204C2468A04780
:1041C000BDF804001D4C2468A047BDF80640240A31
:1041D000E0B21A4C2468A047BDF80600174C2468CA
:1041E000A0472B20144C2468A047BDF80840240A9F
:1041F000E0B2124C2468A047BDF808000F4C2468B8
:10420000A047BDF80A40240AE0B20C4C2468A0473D
:10421000BDF80A00094C2468A0472C20064C2468ED
:10422000A047DDF800E003B0704700BFC0000220E7
:10423000C20002200A03002044090220480902208B
:1042400083B0CDF800E0ADF80400ADF8081002200E
:10425000174C2468A047BDF80420140AE0B2154C9E
:104260002468A0470320124C2468A047BDF804002E
:10427000104C2468A04706200D4C2468A047BDF8C8
:104280000820140AE0B20B4C2468A0470720084C11
:104290002468A047BDF80800064C2468A0472220E7
:1042A000034C2468A047DDF800E003B0704700BF6E
:1042B000440902204809022083B0CDF800E0ADF89F
:1042C0000400ADF808102A20134C2468A047BDF85C
:1042D0000420140AE0B2114C2468A047BDF8040081
:1042E0000E4C2468A0472B200B4C2468A047BDF837
:1042F0000820140AE0B2094C2468A047BDF8080061
:10430000064C2468A0472C20034C2468A047DDF805
:1043100000E003B0704700BF4409022048090220B2
:1043200081B0CDF800E081B20348FDF78DFADDF8E9
:1043300000E001B0704700BF0048004081B0CDF8F8
:1043400000E081B20348FDF77FFADDF800E001B03C
:10435000704700BF004C004081B0CDF800E081B252
:104360000348FDF771FADDF800E001B0704700BFC7
:104370000050004081B0CDF800E081B20348FDF765
:1043800063FADDF800E001B0704700BF0044004070
:1043900083B0CDF800E0ADF80400ADF808102A2095
:1043A000134C2468A047BDF80420140AE0B2114C55
:1043B0002468A047BDF804000E4C2468A0472B20B9
:1043C0000B4C2468A047BDF80820140AE0B2094C41
:1043D0002468A047BDF80800064C2468A0472C209C
:1043E000034C2468A047DDF800E003B0704700BF2D
:1043F000440902204809022082B0CDF800E0ADF85F
:1044000004000E4A116841F40051116001AB1978A3
:10441000CAB2591C0978C8B2D1B2FCF779FD074A73
:1044200011686FF3CF31116000BF044A116841F485
:1044300000411160DDF800E002B070471414024042
:1044400081B0CDF800E081B20348FDF7FDF9DDF859
:1044500000E001B0704700BF0010014081B0CDF80E
:1044600000E081B20348FDF7EFF9DDF800E001B0AC
:10447000704700BF0014014081B0124B1860831CCC
:104480001C78C31C1B781B029BB2E4180E4B1C80CB
:10449000031D1C78431D1B781B029BB2E4180B4BB9
:1044A0001C80831D1C780A4B1C800A4B19800A4B08
:1044B0001A700124094B1C700024094B1C7001B0B8
:1044C000704700BFC8000220C4000220C6000220BE
:1044D000D6000220E6000220E0000220A102002017
:1044E0009300022081B0019F041D25680A4C05EA53
:1044F00004064C00A4B2A5B2084C2540D4B2240452
:1045000004F47F0445EA04041C433C4346EA0405E2
:10451000041D256001B07047009800FCFF030000F7
:1045200081B0031D1A68034902EA0101196001B054
:10453000704700BF00E800FE82B0CDF800E02B4BD2
:104540001B88994200D34CE0294B1B889A4200D328
:1045500047E00024274B1C800024274B1C80274B5E
:104560001980274B1980274B1A80274B1A80044645
:10457000431C19462378DEB2002B32D0234B1B7824
:104580003BB10191F0B2FDF703F80199401C80B2F4
:1045900006E00191F0B2FCF7B7FB0199401C80B234
:1045A0001B4B1B78022B0CD11A4B1D88124C2388F5
:1045B0005B1923800F4B1B88834201D20D4B18805F
:1045C0000DE00C4C23881B182380124B1C880A4BCF
:1045D0001B88A34203D20F4B1C88074B1C80084644
:1045E000C5E7DDF800E002B0704700BFC000022060
:1045F000C2000220FC0D0020FE0D00203C0902201C
:104600003E090220400902204209022093000220B4
:10461000E0000220D600022085B0CDF800E0ADF821
:104620000C00ADF81010604B1C88BDF80C30A34294
:1046300001D36420B4E05D4B1C88BDF81030A34268
:1046400001D36520ACE05A49002040F63803984277
:1046500005D20C1800232370431C98B2F5E7544B85
:104660001A60544B1A60FEF71BF8534B1B7813B1BA
:10467000514B187894E0FCF7F9FA504D2B88DC0880
:10468000A4B2ADF804404E4B1B88DB08ADF80630F1
:10469000E400A4B22B461B889C4204D2BDF804302F
:1046A0005B1CADF80430BDF80630DC00A4B2444B0E
:1046B0001B889C4204D2BDF806305B1CADF8063066
:1046C000404B1B78012B0CD1BDF806305C08A4B21E
:1046D000BDF8063003F001039BB2E318ADF80630D5
:1046E0002CE0384B1B78022B0CD1BDF804305C0851
:1046F000A4B2BDF8043003F001039BB2E318ADF897
:1047000004301BE02F4B1B78032B17D1BDF806306C
:104710005C08A4B2BDF8063003F001039BB2E318B5
:10472000ADF80630BDF804305C08A4B2BDF8043022
:1047300003F001039BB2E318ADF80430224C236868
:104740006FF30C3323600023ADF80830BDF804404C
:10475000BDF80830A3421CD20023ADF80A30BDF8E2
:104760000640BDF80A30A3420DD2FCF73BFFBDF86E
:104770001010BDF80C00FEF7A7FBBDF80A305B1C5B
:10478000ADF80A30EBE7BDF808305B1CADF8083037
:10479000DCE70D4C236843F480532360064B187804
:1047A000DDF800E005B07047C0000220C200022022
:1047B000E8000220200902206C050220F0000220FF
:1047C000F20002207A0802201414024088B0CDF8CA
:1047D00000E0ADF81000ADF81410ADF81820ADF8F9
:1047E0001C308C4C24786508EDB2BDF91040641B78
:1047F00024B223B2002C03DA00231BB218B209E062
:10480000854C2488A34204D3834C2488631E1BB2A6
:10481000FFE718B27F4C2478641E24B265102DB2D5
:10482000BDF91840641924B225B2002C03DA002522
:104830002DB229B209E0784C2488A54204D3764CE5
:104840002488651E2DB2FFE729B2724C2478FCB192
:10485000ADF80410ADF80600BDF91420FCF78CFA91
:10486000BDF90600BDF90410BDF91C20FCF784FA5F
:10487000BDF91020BDF91C10BDF91400FCF7F6FFBE
:10488000BDF91820BDF91C10BDF91400FCF7EEFFAE
:10489000624C2478002C00F0B880614C2488ADF87C
:1048A0000C405C4F3C788DF80E403C462478641CEC
:1048B00024B26610B5B2BDF910406419ADF81040CD
:1048C000B5B2BDF914406419ADF814403C462478E3
:1048D000A41C24B26610B5B2BDF91840641BADF833
:1048E0001840B5B2BDF91C40641BADF81C404D4CDE
:1048F0002478002C00F063804B4C24787CBBBDF9FD
:104900001440ADF80A40BDF91C50BDF80A40AC4255
:1049100024D8BDF91450BDF91C40671BBDF91450D3
:10492000BDF80A40661B414C2588414C2488BBB227
:10493000B2B2A9B2A0B2FCF77FFC0121FFF7B6F931
:10494000BDF80A20BDF91810BDF91000FCF714FAE3
:10495000BDF80A40641CADF80A40D4E72EE0BDF96A
:104960001040ADF80840BDF91850BDF80840AC4201
:1049700024D8BDF91050BDF91840671BBDF910507F
:10498000BDF80840661B294C2588294C2488BBB2F9
:10499000B2B2A9B2A0B2FCF74FFC0121FFF786F931
:1049A000BDF80820BDF91C10BDF91400FCF75EFF2E
:1049B000BDF80840641CADF80840D4E71DE01D4C6C
:1049C00024880121A0B2FFF771F9BDF91440ADF8B8
:1049D0000A40BDF91C50BDF80A40AC420DD8BDF8E4
:1049E0000A20BDF91810BDF91000FCF7C5F9BDF893
:1049F0000A40641CADF80A40EBE7BDF80C50084CC7
:104A000025809DF80E50034C2570DDF800E008B0BD
:104A1000704700BFE1000220C000022024090220EC
:104A20002609022025090220280902202C0902203B
:104A30002A0902202E09022083B0CDF800E002905E
:104A40001C4B1B88994200D32FE01B4B1B889A42BA
:104A500000D32AE00020ADF8040088B291B2FFF73D
:104A600065F9BDF80400029B1B181B78EBB1134BD2
:104A70001B7863B1029B1B181B78ADF8040098B239
:104A8000FCF750FABDF80400411C89B20BE0029B10
:104A90001B181B78ADF8040098B2FDF75DFABDF85D
:104AA0000400411C89B288B2DDE7DDF800E003B004
:104AB000704700BFC0000220C20002209300022005
:104AC0008BB0CDF800E0ADF81C00ADF82010ADF8CB
:104AD0002420ADF82830BDF82C40ADF82C40BDF8AE
:104AE0002450BDF81C40641B20B224B2002C0ADA0A
:104AF00045422DB2BDF82C406400A4B2A54201D2BB
:104B000000F09FBD07E0BDF82C406400A4B2A042B5
:104B100001D200F096BDBDF82850BDF82040641BBE
:104B200020B224B2002C0ADA45422DB2BDF82C4046
:104B30006400A4B2A54201D200F083BD07E0BDF835
:104B40002C406400A4B2A04201D200F07ABDE34E32
:104B50003488ADF81640E24D2C788DF81840E14CC1
:104B60002488348000242C70BDF82C50BDF82040DF
:104B700004EB05081FFA88F8BDF82C50BDF8244056
:104B8000671BBFB2A8EB0704ADF80A40BDF82C5074
:104B9000BDF81C406619B6B2A8EB0604ADF80C408F
:104BA000BDF82C50BDF82840651BADB2AC1BADF86C
:104BB0000E40EC1BADF81040CB4C2478002C00F0DC
:104BC0008C83C84C2488ADF81240C84C24788DF8EA
:104BD0001440002424B2ADF80840BDF82C40ADF8D4
:104BE0000640BDF92C40640024B2C4F10304ADF8C2
:104BF0000440BDF90640651C2DB2BDF90840AC4229
:104C000080F2CD829DF81840002C00F01482B84C40
:104C10002478002C40F0FF80BDF82050BDF82840DB
:104C2000671BBDF82C50BDF82840651BADB2BDF91F
:104C300006402D19ADB2BDF820402E1BAD4C258885
:104C4000AD4C2488BBB2B2B2A9B2A0B2FCF7F4FA60
:104C50000121FFF72BF8BDF82C50BDF82840651B4B
:104C6000ADB2BDF906402F19BDF82C50BDF8244057
:104C7000651BADB2BDF908402E19BDF82C50BDF82A
:104C80001C406519ADB2BDF908402C1B3AB231B2D7
:104C900020B2FCF771F8BDF82050BDF82840671B22
:104CA000BDF82C50BDF820406519ADB2BDF90640E5
:104CB0002D1BADB2BDF820402E1B8E4C25888E4C8E
:104CC0002488BBB2B2B2A9B2A0B2FCF7B5FA0121F6
:104CD000FEF7ECFFBDF82C50BDF820406519ADB2D1
:104CE000BDF906402F1BBDF82C50BDF82440651BB4
:104CF000ADB2BDF908402E19BDF82C50BDF81C40CE
:104D00006519ADB2BDF908402C1B3AB231B220B2E0
:104D1000FCF732F8BDF82050BDF82840671BBDF8FD
:104D20002C50BDF82840651BADB2BDF908402D19C7
:104D3000ADB2BDF820402E1B6E4C25886E4C2488E9
:104D4000BBB2B2B2A9B2A0B2FCF776FA0121FEF76B
:104D5000ADFFBDF82C50BDF82840A4EB05081FFAA4
:104D600088F8BDF9084008EB0407BDF90640A8EB38
:104D70000405ADB2BDF90E402E1BBDF9064008EB8F
:104D80000405ADB2BDF910402C1B3AB231B220B2CD
:104D9000FBF7F2FFBDF82050BDF82840671BBDF8B7
:104DA0002C50BDF820406519ADB2BDF908402D1B4F
:104DB000ADB2BDF820402E1B4E4C25884E4C2488A9
:104DC000BBB2B2B2A9B2A0B2FCF736FA0121FEF72B
:104DD0006DFFBDF82C50BDF8204004EB05081FFA0C
:104DE00088F8BDF90840A8EB0407BDF9064008EBB8
:104DF0000405ADB2BDF90A402E1BBDF90640A8EB73
:104E00000405ADB2BDF90C402C1B3AB231B220B250
:104E1000FBF7B2FF0EE1BDF81C50BDF82440671B44
:104E2000BDF82C50BDF82440651BADB2BDF908405B
:104E30002D19ADB2BDF81C402E1B2E4C25882E4CD2
:104E40002488BBB2B2B2A9B2A0B2FCF7F5F9012135
:104E5000FEF72CFFBDF82C50BDF82440651BADB209
:104E6000BDF908402F19BDF82C50BDF82840651B2E
:104E7000ADB2BDF906402E19BDF82C50BDF820404A
:104E80006519ADB2BDF906402C1B3AB231B220B261
:104E9000FCF7ECFCBDF81C50BDF82440671BBDF8C6
:104EA0002C50BDF81C406519ADB2BDF908402D1B52
:104EB000ADB2BDF81C402E1B0E4C25880E4C24882C
:104EC000BBB2B2B2A9B2A0B2FCF7B6F90121FEF7AB
:104ED000EDFEBDF82C50BDF81C400FE02E0902205D
:104EE000250902202609022024090220E1000220CF
:104EF000280902202C0902202A0902206519ADB2D6
:104F0000BDF908402F1BBDF82C50BDF82840651B8B
:104F1000ADB2BDF906402E19BDF82C50BDF82040A9
:104F20006519ADB2BDF906402C1B3AB231B220B2C0
:104F3000FCF79CFCBDF81C50BDF82440671BBDF875
:104F40002C50BDF82440651BADB2BDF906402D19AB
:104F5000ADB2BDF81C402E1BEC4C2588EC4C2488CF
:104F6000BBB2B2B2A9B2A0B2FCF766F90121FEF75A
:104F70009DFEBDF82C50BDF82440A4EB05081FFA97
:104F800088F8BDF9064008EB0407BDF9084008EBB6
:104F90000405ADB2BDF910402E19BDF90840A8EBCB
:104FA0000405ADB2BDF90A402C193AB231B220B2B3
:104FB000FCF75CFCBDF81C50BDF82440671BBDF835
:104FC0002C50BDF81C406519ADB2BDF906402D1B33
:104FD000ADB2BDF81C402E1BCC4C2588CC4C24888F
:104FE000BBB2B2B2A9B2A0B2FCF726F90121FEF71A
:104FF0005DFEBDF82C50BDF81C4004EB05081FFAFF
:1050000088F8BDF90640A8EB0407BDF90840A8EBF5
:105010000405ADB2BDF90C402E19BDF9084008EBEE
:105020000405ADB2BDF90E402C193AB231B220B22E
:10503000FCF71CFC88E0BDF81650B64C2580012515
:10504000B54C2570BDF82C50BDF82840651BADB29D
:10505000BDF906402F19BDF82C50BDF82440651B42
:10506000ADB2BDF908402E19BDF82C50BDF81C405A
:105070006519ADB2BDF908402C1B3AB231B220B26D
:10508000FBF77AFEBDF82C50BDF820406519ADB293
:10509000BDF906402F1BBDF82C50BDF82440651B00
:1050A000ADB2BDF908402E19BDF82C50BDF81C401A
:1050B0006519ADB2BDF908402C1B3AB231B220B22D
:1050C000FBF75AFEBDF82C50BDF82840A4EB0508AC
:1050D0001FFA88F8BDF9084008EB0407BDF906403F
:1050E000A8EB0405ADB2BDF90E402E1BBDF906407C
:1050F00008EB0405ADB2BDF910402C1B3AB231B239
:1051000020B2FBF739FEBDF82C50BDF8204004EB6F
:1051100005081FFA88F8BDF90840A8EB0407BDF997
:10512000064008EB0405ADB2BDF90A402E1BBDF9DF
:105130000640A8EB0405ADB2BDF90C402C1B3AB2F9
:1051400031B220B2FBF718FEBDF90440002C0BDA97
:10515000BDF90840A40024B2A51D2DB2BDF904403C
:105160006419ADF8044014E0BDF90650BDF90840DB
:10517000641B24B2A40024B204F20A052DB2BDF9C6
:1051800004406419ADF80440BDF90640641EADF852
:105190000640BDF90840641CADF8084029E59DF8BB
:1051A0001840002C00F072805C4C2478002C36D122
:1051B000BDF82C50BDF820406419ADF80640BDF88C
:1051C0002C50BDF82840651BADB2BDF90640AC427D
:1051D00024D8BDF82050BDF82840671BBDF82050EA
:1051E000BDF90640661B494C2588494C2488BBB252
:1051F000B2B2A9B2A0B2FCF71FF80121FEF756FD2A
:10520000BDF90620BDF82410BDF81C00FBF7B4FD65
:10521000BDF90640641CADF80640D0E735E0BDF8A6
:105220002C50BDF81C406419ADF80840BDF82C5056
:10523000BDF82440651BADB2BDF90840AC4224D88E
:10524000BDF81C50BDF82440671BBDF81C50BDF9CB
:105250000840661B2D4C25882D4C2488BBB2B2B269
:10526000A9B2A0B2FBF7E8FF0121FEF71FFDBDF9CF
:105270000820BDF82810BDF82000FCF7F7FABDF9AA
:105280000840641CADF80840D0E71EE0BDF82C5083
:10529000BDF820406419ADF80640BDF82C50BDF8AB
:1052A0002840651BADB2BDF90640AC420DD8BDF932
:1052B0000620BDF82410BDF81C00FBF75DFDBDF90C
:1052C0000640641CADF80640E7E7BDF81250114CEB
:1052D00025809DF81450104C2570002424B2ADF8A0
:1052E0000840BDF82C40ADF80640BDF92C406400E4
:1052F00024B2C4F10304ADF80440BDF90640651CB6
:105300002DB2BDF90840AC4200F00AB82C090220C9
:105310002A09022026090220E10002202809022091
:1053200080F20B81C94C2478641E24B26710BDF84A
:105330002C50BDF82840651BADB2BDF906402E19B2
:10534000BDF82C50BDF81C406519ADB2BDF9084040
:105350002C1B01233AB231B220B2FCF701FBBB4C4B
:105360002478641E24B26710BDF82C50BDF8284084
:10537000651BADB2BDF906402E19BDF82C50BDF825
:105380002440651BADB2BDF908402C1901233AB287
:1053900031B220B2FCF7E4FAAC4C2478641E24B29B
:1053A0006710BDF82C50BDF820406519ADB2BDF9AD
:1053B00006402E1BBDF82C50BDF81C406519ADB23F
:1053C000BDF908402C1B01233AB231B220B2FCF7E0
:1053D000C7FA9E4C2478641E24B26710BDF82C5086
:1053E000BDF820406519ADB2BDF906402E1BBDF8D1
:1053F0002C50BDF82440651BADB2BDF908402C19F6
:1054000001233AB231B220B2FCF7AAFA8F4C2478C9
:10541000641E24B26710BDF82C50BDF82840651BEF
:10542000ADB2BDF908402E19BDF906402D19ADB237
:10543000BDF910402C1B01233AB231B220B2FCF767
:105440008FFA824C2478641E24B26710BDF82C5069
:10545000BDF82840651BADB2BDF908402E19BDF955
:1054600006402D1BADB2BDF90E402C1B01233AB2F4
:1054700031B220B2FCF774FA744C2478641E24B262
:105480006710BDF82C50BDF820406519ADB2BDF9CC
:1054900008402E1BBDF906402D1BADB2BDF90C40D6
:1054A0002C1B01233AB231B220B2FCF759FA674CF7
:1054B0002478641E24B26710BDF82C50BDF820403B
:1054C0006519ADB2BDF908402E1BBDF906402D1976
:1054D000ADB2BDF90A402C1B01233AB231B220B261
:1054E000FCF73EFABDF90440002C0BDABDF9084088
:1054F000A40024B2A51D2DB2BDF904406419ADF875
:10550000044014E0BDF90650BDF90840641B24B204
:10551000A40024B204F20A052DB2BDF904406419B6
:10552000ADF80440BDF90640641EADF80640BDF973
:105530000840641CADF80840DFE6BDF82C50BDF80B
:105540002440661BBDF82C50BDF81C406419BDF802
:10555000203032B2BDF8201020B2FBF7CDFE3B4C1C
:10556000247804F00104E4B294B1BDF82C50BDF8E5
:105570002440661BBDF82C50BDF81C406419BDF8D2
:10558000283032B2BDF8281020B2FBF7B5FE12E089
:10559000BDF82840671CBDF82C50BDF82440661BA0
:1055A000BDF82C50BDF81C4064193BB232B239B280
:1055B00020B2FBF7A1FEBDF82C50BDF82840661BB9
:1055C000BDF82C50BDF82040641933B2BDF81C2042
:1055D00021B2BDF81C00FBF78FFE1C4C247804F0B0
:1055E0000104E4B294B1BDF82C50BDF82840661B0C
:1055F000BDF82C50BDF82040641933B2BDF824200A
:1056000021B2BDF82400FBF777FE12E0BDF82C5064
:10561000BDF82840671BBDF82440661CBDF82C501F
:10562000BDF8204064193BB232B221B230B2FBF770
:1056300063FEBDF81650064C25809DF81850054CA9
:105640002570DDF800E00BB0704700BFE1000220DC
:105650002E0902202509022082B0CDF800E0ADF825
:105660000400154A116841F40051116001A9491C58
:105670000978C8B2FDF71CFC104A11686FF3CF31EE
:10568000116000BF0D4A116841F40041116001A989
:105690000978C8B2FDF70CFC084A11686FF3CF31E6
:1056A000116000BF054A116841F400411160DDF846
:1056B00000E002B0704700BF14140240141402400E
:1056C00081B0CDF800E081B20348FCF7BDF8DDF809
:1056D00000E001B0704700BF007C004081B0CDF811
:1056E00000E081B20348FCF7AFF8DDF800E001B05C
:1056F000704700BF00780040094A116841F400512A
:10570000116008490880084A11686FF3CF311160B1
:1057100000BF054A116841F400411160704700BFA5
:1057200014140240141802401414024081B00248BC
:10573000007801B0704700BFA302002081B0CDF80F
:1057400000E083B2D90AC8B2C100CCB2E109C9B243
:10575000012902D1E11DC8B200E0E0B200F006F973
:105760005909C8B28100CCB2E109C9B2012902D1FC
:10577000E11CC8B200E0E0B200F0F8F8D900CBB20A
:10578000D909C9B2012902D1D91DC8B200E0D8B2E5
:1057900000F0ECF8DDF800E001B0704781B000F0F7
:1057A000030202490A7001B0704700BF8F00022057
:1057B000024A116860F3041111607047140402403A
:1057C000024A116860F34D311160704714100240B5
:1057D000024A116860F3861111607047140002409C
:1057E000024A116860F345111160704714000240CD
:1057F000024A116860F38201116070471408024088
:10580000024A116860F3451111607047140C0240A0
:10581000024A116860F3861111607047140C02404F
:10582000024A116860F34921116070471404024074
:10583000024A116860F308211160704714040240A5
:1058400081B0CDF800E00B4A11686FF34D31116063
:10585000FDF72EFB084A11686FF3CF31116000BFCE
:10586000054A116841F400411160DDF800E001B023
:10587000704700BF141402401414024081B0CDF8E8
:1058800000E00B4A116841F400511160FDF710FB74
:10589000084A11686FF3CF31116000BF054A1168E3
:1058A00041F400411160DDF800E001B0704700BF35
:1058B0001414024014140240024A116860F3492192
:1058C00011607047140C0240024A116860F38201B3
:1058D00011607047140C024081B0CDF800E0FCF775
:1058E000ABFCFCF7A9FC114A11686FF30C31116095
:1058F0000F4A116841F4804111600E4A11686FF33C
:105900004D311160FDF7D4FA0B4A11686FF3CF31B6
:105910001160116841F400411160044A116841F4BA
:1059200080511160DDF800E001B0704714140240AE
:10593000141402401414024014140240024A116864
:1059400060F3C3011160704714000240024A1168FD
:1059500060F345111160704714040240024A116857
:1059600060F38E3111607047140C024081B0CDF8A5
:1059700000E0134A11686FF30C311160114A11688D
:1059800041F480411160104A116841F400511160E6
:10599000FDF78EFA0D4A11686FF3CF31116011686F
:1059A00041F400411160064A116841F480511160D0
:1059B000FCF742FCFCF740FCDDF800E001B070476A
:1059C000141402401414024014140240141402402F
:1059D000024A116860F3041111607047140C024010
:1059E000024A116860F3C711116070471404024045
:1059F000024A116860F3C30111607047140C024041
:105A0000024A116860F308211160704714040240D3
:105A1000024A116860F38611116070471404024055
:105A2000024A116860F30C3111607047140C024097
:105A3000024A116860F3451111607047140002407A
:105A4000024A116860F304111160704714000240AB
:105A5000024A116860F34511116070471404024056
:105A6000024A116860F38611116070471400024009
:105A7000024A116860F386111160704714000240F9
:105A8000024A116860F3451111607047140002402A
:105A9000024A116860F34D3111607047140C0240E6
:105AA000024A116860F34511116070471404024006
:105AB000024A116860F382011160704714040240C9
:105AC000024A116860F349211160704714040240D2
:105AD000024A116860F3CB21116070471410024034
